:020000040000FA
:0800000023008C010C16072AF5
:080008003B003D10711822328B
:10001000700803190F32033A0319143272193C3273
:1000200070083B3C031838327008BB3C031C343268
:10003000902032323B009730B3000430B400BF1739
:1000400072142A323B005E30B3000030B400BF1798
:10005000721022320630F21C013E7006031D05327A
:10006000F001F1010230F20609007008013A0319AB
:100070000632013A023A03190932023A0D32F30804
:1000800003190A32F3030319F2110632F536F40CA0
:100090000318B430F5060032F00A0319F10A09001A
:1000A00072151130F600F9010A3079020318F900CF
:1000B000F70DF80DF90DF60BF733F936721108004C
:1000C000F700F73577357707080021001D149D14D8
:1000D0009D18FE331D10FB0140301C020318023234
:1000E0007B16080095301C0203180232FB1608002C
:1000F000B5301C0203180232FB150800C6301C0282
:10010000031802327B140800D1301C02031802329B
:100110007B150800D8301C0203180132FB140800BC
:1001200004081C0005081C0000301C0010300032C0
:10013000890BFD3330308400203085003C30700264
:1001400089368936602084070301853D0630F60034
:1001500023009D17120023009A002000111EFE3379
:10016000F60BF83323009A012000111EFE33230002
:100170009D131700850017008400080072152030B9
:10018000850030308400C0301C007F3F1A00810B96
:10019000FD337E317211080020308500303084003C
:1001A0001700602084070301853D013689368936B2
:1001B00084070301853D17000739080072157F3F4A
:1001C0001C007F3F1C000408FD3F0508FE3FCC20BB
:1001D0001C000130031903328935810BFD33800681
:1001E000000581007F3F85007E3F840017007E313F
:1001F0001C00721108007E3F031911328935FE3F41
:10020000031C09327F3F1C007F3F1C00DE207C3F27
:1002100081041700FD3F7F3F890AFF3FEC337D31AA
:1002200008002300170092001700910017009107A3
:100230000301923D1513151400000000FC01080095
:10024000910A0319920AF63303307C060319202120
:100250007C0803190632890B023213080332130E8D
:100260000132140EF0391C00FC0A080024217D3FE5
:100270001C007D3F1C00FB207F3F890AFF3F0800D8
:1002800081353F301C0082301C00112100301C00E1
:10029000362136213621362136217D3108001830AD
:1002A00001020318053265301C0082301C00063242
:1002B000810081357D301C0082301C00112100300E
:1002C0001C00362136213621230030301405031955
:1002D00036210108FE3F7E31080000301C00010875
:1002E0001C007E3F8522891B13321C007C3F1C00B2
:1002F0007C3F1C007E3F1C007E3FFD3F7F3FFE3F5A
:10030000170081004021810A7D3F043EFD3FE73315
:100310007C3108007E3F03190A328903FE3F010841
:100320001C007E3F1C00DE207F31810AF3337D31CB
:1003300008007E3F03190A328903FE3F7F3F1C00FD
:100340007F3F1C00DE207F31810AF3337D310800BE
:1003500000301C00BE2016301C0000301C00003095
:100360001C00992116301C000B301C0000301C00B2
:1003700099210C301C0016301C0000301C008A2112
:100380000D301C0000301C0000301C006D210D30B1
:100390001C000C301C0001301C006D2115301C00AD
:1003A00006301C0002301C006D2115301C0012307C
:1003B0001C0002301C006D2120000230C200C3016D
:1003C000C001C101C401C501C601FB0172160800CC
:1003D00000301C0004301C0000301C007E3F1C005C
:1003E0004F217F313C30F300F215F219FE33043017
:1003F0001C0000301C007E3F1C004F217F31810A11
:100400001C300102031CE6338101E433080087013C
:100410001F30860021000C309D0020309E002100FE
:100420000C118C1022008C10230001309B009C01C9
:100430009A01B0309E009D17CF309D053B00B10161
:10044000B201BF01F530B5000430B600BE01D030B6
:10045000BB005E30B3000030B400BF173D103C1449
:1004600021001317C0308B00F001F101F201AC3014
:10047000F400E130F500A821E821FF33FC33AA0E97
:10048000E02AC404E0242E0EE0282E0EE022AE0A5C
:1004900020228E0EE0228E08E02A220E2022AE0EAE
:1004A000E02AAE0E2022883660288E3EE028443EA8
:1004B000E0248838E028CA38A02AAA34402AEA383A
:1004C00080288C36C022403000244634802E2236CC
:1004D000E0222632E0284436202E60266026602660
:1004E00060266023623460236234402EC434E024EA
:1004F0006434602C6432602C643222020012001FCB
:10050000001022020012001F00100B0002320A32FB
:10051000123217000B0011340A340F3410340B342C
:100520001234FF3417000B000D340C340E340B342E
:1005300011341234FF3417000B000034003400343F
:08054000003400340034FF34E4
:040548000034003447
:020000040001F9
:02000E00E73FCA
:02001000FF1ED1
:00000001FF
