:020000040000FA
:0800000023008C010C162E2ACE
:080008003B003D10711822328B
:10001000700803190F32033A0319143272193C3273
:100020007008453C031838327008C53C031C343254
:10003000952032323B009730B3000430B400BF1734
:1000400072142A323B005E30B3000030B400BF1798
:10005000721022320630F21C013E7006031D05327A
:10006000F001F1010230F20609007008013A0319AB
:100070000632013A023A03190932023A0D32F30804
:1000800003190A32F3030319F2110632F536F40CA0
:100090000318B430F5060032F00A0319F10A09001A
:1000A00072151130F600F9010A3079020318F900CF
:1000B000F70DF80DF90DF60BF733F936721108004C
:1000C000FA00FA357A357A07080021001D1400324B
:1000D00006300032890BFD339D149D18FE331D1030
:1000E000FB0140301C02031802327B1608009530D9
:1000F0001C0203180232FB160800B5301C0203185C
:100100000232FB150800C6301C02031802327B14B1
:100110000800D1301C02031802327B150800D830C9
:100120001C0203180132FB14080004081C00050817
:100130001C0000301C000A300032890BFD333030C7
:100140008400203085004630700289368936602070
:1001500084070301853D0630F60023009D17120039
:1001600023009A002000111EFE33F60BF833230003
:100170009A012000111EFE3323009D1317008500F5
:10018000170084000800721520308500303084008C
:10019000C0301C007F3F1A00810BFD337E3172118D
:1001A000080020308500303084001700602084076C
:1001B0000301853D01368936893684070301853D73
:1001C00007308105080072157E3F1C007E3F1C0031
:1001D0000408FC3F0508FD3FD1200130031903321C
:1001E0008935810BFD3381007F3F031903320109FB
:1001F0008005043201088006000581007E3F8500ED
:100200007D3F840017007D311C00721108007E3F85
:10021000031913328935FE3F031C0B327F3F1C004C
:100220007F3F1C0000301C00E3207C3F810417004E
:10023000FD3F7F3F890AFF3FEA337D3108002300FD
:100240001700920017009100170091070301923DDB
:100250001513151400000000FC010800910A031991
:10026000920AF63303307C0603192E217C08031909
:100270000632890B023213080332130E0132140EB8
:10028000F0391C00FC0A080032217D3F1C007D3F34
:100290001C0007217F3F890AFF3F08008135673036
:1002A0001C0082301C001F2100301C00442144210E
:1002B0004421442144217D310800183001020318F3
:1002C000053293301C0082301C00063281008135DB
:1002D000AB301C0082301C001F2100301C00442168
:1002E000442144212300303014050319442101081E
:1002F000FE3F7E31080000301C0001081C007E3FDC
:10030000B322891B13321C007C3F1C007C3F1C0065
:100310007E3F1C007E3FFD3F7F3FFE3F1700810078
:100320004E21810A7D3F043EFD3FE7337C310800CA
:100330007808770403190F327F3F1C007F3F1C00B1
:10034000502079081C004E217F3F1C0004308102A0
:100350001700FF3FED337F3F2B3A031D02321C0095
:100360009D337E3108007E3F03190C328903FE3F26
:1003700001081C007E3F1C0000301C00E3207F3180
:10038000810AF1337D3108007E3F03190C32890365
:10039000FE3F7F3F1C007F3F1C0000301C00E3201D
:1003A0007F31810AF1337D31080000301C00C32009
:1003B00016301C0000301C0000301C00C421163018
:1003C0001C000B301C0000301C00C4210C301C0031
:1003D00016301C0000301C00B3210D301C00003012
:1003E0001C0000301C007B210D301C000C301C0058
:1003F00001301C007B2120000230C200C301C0017B
:10040000C101C401C501C601FB017216080020002C
:100410004408F7004508F8002B301C0006301C008B
:10042000982120004608F700F8012B301C001230FC
:100430001C00982100301C0018301C0002301C00E9
:100440007B21652020007B1EFC3300301C0018300F
:100450001C0002301C007B21FF33080087011F3085
:10046000860021000C309D0020309E0024000C12DC
:1004700021000C118C1022008C10230002309B00F4
:100480009C019A01B0309E009D17CF309D053B0026
:10049000B101B201BF01F530B5000430B600BE01B4
:1004A000D030BB005E30B3000030B400BF173D1049
:1004B0003C1421001317C0308B00F001F101F20150
:1004C000AC30F400E130F500D5210722FD33AA0E4F
:1004D000E02AC404E0242E0EE0282E0EE022AE0A0C
:1004E00020228E0EE0228E08E02A220E2022AE0E5E
:1004F000E02AAE0E2022AE3EA02A883660288E3E2C
:10050000E028443EE0248838E028CA38A02AAA34EB
:10051000402AAE3E8028EA3880288C36C0224030FF
:100520000024002000204634802E2236E02226328D
:10053000E0284436202E6026602660266026602350
:10054000623460236234402EC434E0246434602C6E
:100550006432602C643222020012001F001022025A
:100560000012001F00100B0002320A321232170074
:100570000B0013340B34103412340C341434FF34A5
:1005800017000B000E340D340F340C3413341434B4
:10059000FF3417000B00113412340C3413341334AD
:0605A00015340A34FF349B
:0405A60000340034E9
:020000040001F9
:02000E00E73FCA
:02001000FF1ED1
:00000001FF
