:020000040000FA
:0800000023008C010C16A22A5A
:080008003B003D10711822328B
:10001000700803190F32033A0319143272193C3273
:100020007008453C031838327008C53C031C343254
:10003000952032323B009730B3000430B400BF1734
:1000400072142A323B005E30B3000030B400BF1798
:10005000721022320630F21C013E7006031D05327A
:10006000F001F1010230F20609007008013A0319AB
:100070000632013A023A03190932023A0D32F30804
:1000800003190A32F3030319F2110632F536F40CA0
:100090000318B430F5060032F00A0319F10A09001A
:1000A00072151130F600F9010A3079020318F900CF
:1000B000F70DF80DF90DF60BF733F936721108004C
:1000C000FA00FA357A357A07080021001D1400324B
:1000D00006300032890BFD339D149D18FE331D1030
:1000E000FB0140301C02031802327B1608009530D9
:1000F0001C0203180232FB160800B5301C0203185C
:100100000232FB150800C6301C02031802327B14B1
:100110000800D1301C02031802327B150800D830C9
:100120001C0203180132FB14080004081C00050817
:100130001C0000301C000A300032890BFD333030C7
:100140008400203085004630700289368936602070
:1001500084070301853D0630F60023009D17120039
:1001600023009A002000111EFE33F60BF833230003
:100170009A012000111EFE3323009D1317008500F5
:10018000170084000800721520308500303084008C
:10019000C0301C007F3F1A00810BFD337E3172118D
:1001A000080020308500303084001700602084076C
:1001B0000301853D01368936893684070301853D73
:1001C000073081050800D120013003190332893539
:1001D000810BFD3300058100080072157E3F1C0075
:1001E0007E3F1C000408FC3F0508FD3FD120013084
:1001F000031903328935810BFD3381007F3F0319D9
:1002000003320109800504320108800600058100DF
:100210007E3F85007D3F840017007D311C007211F8
:1002200008007E3F031913328935FE3F031C0B3251
:100230007F3F1C007F3F1C0000301C00ED207C3FF6
:1002400081041700FD3F7F3F890AFF3FEA337D317C
:100250000800230017009200170091001700910773
:100260000301923D1513151400000000FC01080065
:100270002300910A0319920AF53303307C0603190F
:10028000382123007C0803190632890B0232130837
:100290000332130E0132140EF0391C00FC0A080060
:1002A0003D217D3F1C007D3F1C0011217F3F890ABD
:1002B000FF3F08008135DC301C0082301C00292102
:1002C00000301C00502150215021502150217D31FF
:1002D00008002000403589351C0018300102031841
:1002E00007324108810708301C0083301C000732A8
:1002F00081014135810720301C0083301C002921F9
:10030000200042081C0043081C0000301C00502143
:1003100050215021230030301405031950210108C9
:100320007D311C00080000301C0001081C007E3FCD
:100330002823891B13321C007C3F1C007C3F1C00BF
:100340007E3F1C007E3FFD3F7F3FFE3F1700810048
:100350005A21810A7D3F043EFD3FE7337C3108008E
:100360007808770403190F327F3F1C007F3F1C0081
:10037000502079081C005A217F3F1C000430810264
:100380001700FF3FED337F3F2B3A031D02321C0065
:1003900091337E3108007E3F03190C328903FE3F02
:1003A00001081C007E3F1C0000301C00ED207F3146
:1003B000810AF1337D3108007E3F03190C32890335
:1003C000FE3F7F3F1C007F3F1C0000301C00ED20E3
:1003D0007F31810AF1337D31080000301C00C320D9
:1003E00016301C0000301C0000301C00DC211630D0
:1003F0001C000B301C0000301C00DC210C301C00E9
:1004000016301C0000301C00CB210D301C000030C9
:100410001C0000301C0093210D301C000C301C000F
:1004200001301C00932120000430C200C301C00130
:10043000C101C401C501C601FB01721608000A30E2
:100440001C0001081C007E3F1C00E320031903323E
:100450007D3F890AFD3F7F31810BF3337E310800F8
:10046000200007307405073A031D073AC000033027
:100470007505C1000430C200C30108002000440813
:10048000F7004508F8002B301C0006301C00B02196
:1004900020004608F700F8012B301C0012301C0029
:1004A000B02100301C0018301C0002301C009321C9
:1004B00065207B1EFD33721200301C0018301C00BA
:1004C00002301C00932130226921170003193732B2
:1004D0000A30F300F215F219FE3369211700652086
:1004E00020007B08103A03191632103A203A0319FB
:1004F0001332203A013A03191432013A023A03192D
:100500000C32023A083A03191532083A043A031930
:100510000C32043A133212321132C1030330C105D6
:100520000D32C10A0330C105093201304206031DF4
:10053000C20304320A304206031DC20AC5336921D0
:100540001700080087011F30860021000C309D0035
:1005500020309E0024000C122100F8308C0522006F
:100560008C100C10230002309B009C019A01B030CB
:100570009E009D17CF309D053B00B101B201BF0128
:10058000F530B5000430B600BE01D030BB005E309F
:10059000B3000030B400BF173D103C142100131706
:1005A000C0308B00F001F101F201AC30F400E13019
:1005B000F500ED213E22FD33AA0EE02AC404E0241A
:1005C0002E0EE0282E0EE022AE0A20228E0EE02211
:1005D0008E08E02A220E2022AE0EE02AAE0E202245
:1005E000AE3EA02A883660288E3EE028443EE024B5
:1005F0008838E028CA38A02AAA34402AAE3E80288B
:10060000EA3880288436C0224030002400200020B0
:100610008C38E830443CE0324C34E0384436E23048
:10062000C03CC03CC03CC03CC0366234C0366234C2
:10063000403E62324E30C838603CC834603CC834FA
:10064000440400140F30001022020012F0100010B9
:100650000B0002320A32123217000B0013340B3433
:10066000103412340C341434FF3417000B000E34E1
:100670000D340F340C3413341434FF3417000B00D2
:10068000113412340C341334133415340A34FF3457
:0406900000340034FE
:020000040001F9
:02000E00E73FCA
:02001000FF1ED1
:00000001FF
