:020000040000FA
:0800000023008C010C169B2962
:080008003B003D10721C0C329C
:100010007008033A031D43323B005E30B3000030EA
:10002000B400BF1772103B3270087106031D08320E
:100030003B009730B3000430B400BF1772142F3266
:10004000711C22320630F21C013E7006031D05327F
:10005000F001F1010230F20622327008013A031970
:100060000632013A023A03190932023A1832F30809
:1000700003191532F3030319F2111132F536F40C9A
:100080000318B430F5060B327219093270083B3C84
:10009000031805327008BB3C031C01325920F00ADA
:1000A0000319F10A0900F700F735773577070800DB
:1000B000080004081C0005081C0000301C0010305B
:1000C0000032890BFD3330308400203085003C3015
:1000D000700289368936532084070301853D063036
:1000E000F60023009D17120023009A002000111E25
:1000F000FE33F60BF83323009A012000111EFE3365
:1001000023009D131700850017008400080041316B
:100110001C0072152030850030308400C030FF3F55
:1001200017001A00810BFD337F3172110800203057
:100130008500303084001700532084070301853D7B
:1001400001368936893684070301853D1700073952
:10015000080072157F3F1C007F3F1C000408FD3F14
:100160000508FE3F97201C00013003190332893532
:10017000810BFD338006000581007F3F85007E3FB7
:10018000840017007E311C00721108007E3F0319A5
:1001900011328935FE3F031C09327F3F1C007F3F2F
:1001A0001C00A9207C3F81041700FD3F7F3F890A86
:1001B000FF3FEC337D310800230017009200170049
:1001C0009100170091070301923D151315140000CB
:1001D00000000800910A0319920AF7330108031975
:1001E0000632890B023213080332130E0132140E49
:1001F000F03981000800EE207D3F1C007D3F1C008F
:10020000C6207F3F890AFF3F08008135CE301C00A1
:1002100081301C00DC2000301C0000301C00FB2062
:1002200001301C00FB2002301C00FB20EA200030C3
:100230001C00FB2001301C00FB207D310800003039
:100240001C0001081C007E3F1422891B13321C0075
:100250007C3F1C007C3F1C007E3F1C007E3FFD3F1E
:100260007F3FFE3F170081000521810A7D3F043E4C
:10027000FD3FE7337C3108007E3F03190A328903D2
:10028000FE3F01081C007E3F1C00A9207F31810A2F
:10029000F3337D3108007E3F03190A328903FE3FA4
:1002A0007F3F1C007F3F1C00A9207F31810AF33370
:1002B0007D31080000301C00872016301C00003003
:1002C0001C0000301C004B2116301C000B301C00A1
:1002D00000301C004B210C301C0016301C0000307C
:1002E0001C003C210D301C0000301C0000301C00A4
:1002F0001F210D301C000C301C0001301C001F2180
:100300000D301C0006301C0002301C001F210D3077
:100310001C0012301C0002301C001F212000023083
:10032000C200C301C001C101C401C501C601FB0176
:1003300072160800080087011F30860021000C118A
:100340008C1022008C10230001309B009C019A012C
:10035000B0309E009D17CF309D053B00B101B2012A
:10036000BF01F530B5000430B600BE01D030BB008F
:100370005E30B3000030B400BF173D103C142100C4
:100380001317C0308B00F001F101F201AC30F40022
:10039000E130F5005A219A21FF33FC33AA0EE02AFE
:1003A000C404E0242E0EE0282E0EE022AE0A202205
:1003B0008E0EE0228E08E02A220E2022AE0EE02AC7
:1003C000AE0E2022883660288E3EE028443EE0248F
:1003D0008838E028CA38A02AAA34402AEA38802877
:1003E0008C36C0224030002422020012001F001070
:1003F00022020012001F00104534802E2236E02217
:100400002632E0284436202E6026602660266026AC
:100410006023623460236234402EC434E0246434A8
:10042000602C6432602C64320B0002320A321232C9
:1004300017000B0011340A340F3410340B3412340B
:10044000FF3417000B000D340C340E340B34113410
:100450001234FF3417000B00003400340034003431
:0A0460000034003400340034FF348F
:04046A000034003426
:020000040001F9
:02000E00E73FCA
:02001000FF1ED1
:00000001FF
