:020000040000FA
:0600000023008C01D7284B
:080008003B003D10721C0C329C
:100010007008033A031D2C323B005E30B300003001
:10002000B400BF177210243270087106031D083225
:100030003B009730B3000430B400BF17721418327D
:10004000711C0B320630F21C013E7006031D10328B
:10005000F001F1010230F2060B3272190932700818
:100060003B3C031805327008BB3C031C01324120A5
:10007000F00A0319F10A0900F400F4357435740725
:10008000080010300032890BFD33303084002030FE
:1000900085003C307002893689363C208407030194
:1000A000853D0630F30023009D17120023009A00BF
:1000B0002000111EFE33F30BF83323009A012000B9
:1000C000111EFE3323009D130800F400721520302A
:1000D000850030308400C030F30074081A00F30B40
:1000E000FD33721108002030850030308400170085
:1000F0003C2084070301853D013689368936840713
:100100000301853D17000739080072157F3F1C0069
:100110007F3F1C000408FD3F0508FE3F73201C00C4
:100120000130031903328935810BFD337F3180069D
:100130001700850017008400721108007E3F1C0024
:10014000170003190A3201081C007E3F1C0085209D
:10015000810A7E3F8903FE3FF1337D3108007E3FF7
:100160001C007E3F1C007E3F1C009E207F3F890AB2
:10017000FF3F7D3F8903FD3F031DF1337C310800C4
:1001800000301C00652017301C000C301C000030B3
:100190001C0000301C00AF2016301C000A301C0070
:1001A00000301C0001301C00AF200800080087014F
:1001B0001F30860021000C118C1022008C102300AF
:1001C00001309B009C019A01B0309E009D17CF30FA
:1001D0009D053B00B101B201BF01F530B50004300F
:1001E000B600BE01D030BB005E30B3000030B400BA
:1001F000BF173D103C1421001317C0308B00F001D5
:0C020000F101F201C020D620FF33FC33D6
:04020C000034003486
:020000040001F9
:02000E00E73FCA
:02001000FF1ED1
:00000001FF
