:020000040000FA
:0600000023008C015929C8
:080008003B003D10721C0C329C
:100010007008033A031D2C323B005E30B300003001
:10002000B400BF177210243270087106031D083225
:100030003B009730B3000430B400BF17721418327D
:10004000711C0B320630F21C013E7006031D10328B
:10005000F001F1010230F2060B3272190932700818
:100060003B3C031805327008BB3C031C01324120A5
:10007000F00A0319F10A0900F400F4357435740725
:10008000080010300032890BFD33303084002030FE
:1000900085003C307002893689363C208407030194
:1000A000853D0630F30023009D17120023009A00BF
:1000B0002000111EFE33F30BF83323009A012000B9
:1000C000111EFE3323009D13080041311C007215E0
:1000D0002030850030308400C030FF3F17001A0008
:1000E000810BFD337F3172110800203085003030E4
:1000F000840017003C2084070301853D01368936C2
:10010000893684070301853D1700073908007215F9
:100110007F3F1C007F3F1C000408FD3F0508FE3F99
:1001200075201C000130031903328935810BFD3322
:100130008006000581007F3F85007E3F8400170018
:100140007E31721108000108031911328135031C38
:100150000A327E3F1C007E3F1C0087201C007D3F32
:1001600081041700FD3F7E3F890AFE3FEC337D315D
:100170000800230017009200170091001700910754
:100180000301923D1513151400000000080081358D
:1001900088301C0081301C00B92000301C007E3FDC
:1001A0001C007E3F1C00140EF0391C00A3207F3F72
:1001B000890AFF3F7E3F1C007E3F1C00F030130584
:1001C0001C00A3207F3F890AFF3F7E3F1C007E3F2B
:1001D0001C00130EF0391C00A3207F3F890AFF3F4B
:1001E000013091070301923DC2207E3F1C007E3FFB
:1001F0001C00140EF0391C00A3207F3F890AFF3F2A
:100200007E3F1C007E3F1C00F03013051C00A32025
:100210007D3108007E3F031909328903FE3F010842
:100220001C007E3F1C008720810AF4337D310800CA
:100230007E3F031909328903FE3F7F3F1C007F3F49
:100240001C008720810AF4337D31080000301C0037
:10025000652016301C0000301C0000301C001821E6
:1002600016301C000B301C0000301C0018210C3014
:100270001C0016301C0000301C000A210A301C0033
:1002800000301C0018301C0000301C007E3F1C0099
:100290007E3F1C007E3F1C00C7207D3F8903FD3F41
:1002A000031905327E3F043EFE3F810AEF3308000A
:1002B000080087011F30860021000C118C102200DD
:1002C0008C10230001309B009C019A01B0309E00ED
:1002D0009D17CF309D053B00B101B201BF01F53044
:1002E000B5000430B600BE01D030BB005E30B300B4
:1002F0000030B400BF173D103C1421001317C0306C
:100300008B00F001F101F20126215821FF33FC336B
:10031000AA3EE02AC434E0242E3EE0282E3EE0220D
:10032000AE3A20228E3EE0228E38E02A223E202263
:08033000AE3EE02AAE3E2022A1
:040338000034003459
:020000040001F9
:02000E00E73FCA
:02001000FF1ED1
:00000001FF
