:020000040000FA
:0800000023008C010C16EA2A12
:080008003B003D10711822328B
:10001000700803190F32033A0319143272194B3264
:100020007008453C031847327008C53C031C433236
:10003000BD2041323B009730B3000430B400BF17FD
:10004000721439323B005E30B3000030B400BF1789
:10005000721031320630F21C013E7006031D05326B
:10006000F001F1010230F20609007008003A0319AC
:100070000A32003A013A03191132013A023A0319DD
:100080001432023A1832740803191532F40B133281
:10009000F2123B00AB1321000C160D32F3080319CA
:1000A0000A32F30B0832F2110632F636F50C031859
:1000B000B430F6060032F00A0319F10A090072158D
:1000C0001130F700FA010A307A020318FA00F80D2D
:1000D000F90DFA0DF70BF733FA3672110800FB0031
:1000E000FB357B357B070800FC01F21A0800210074
:1000F0001D14003206300032890BFD339D149D180B
:10010000FE331D1040301C02031802327C1608001A
:1001100095301C0203180232FC160800B5301C0290
:1001200003180232FC150800C6301C020318023204
:100130007C140800D1301C02031802327C15080020
:10014000D8301C0203180132FC1408003B00813532
:1001500001089823A5008936A300010A9823A60068
:100160008936A4000318A31717001700F400AB1773
:10017000AF17F21621000C12080004081C00050835
:100180001C0000301C000A300032890BFD33303077
:1001900084002030850046307002893689366F2011
:1001A00084070301853D0630F70023009D171200E8
:1001B00023009A002000111EFE33F70BF8332300B2
:1001C0009A012000111EFE3323009D1317008500A5
:1001D000170084000800721520308500303084003C
:1001E000C0301C007F3F1A00810BFD337E3172113D
:1001F0000800203085003030840017006F2084070D
:100200000301853D01368936893684070301853D22
:10021000073081050800F9200130031903328935C0
:10022000810BFD3300058100080072157E3F1C0024
:100230007E3F1C000408FC3F0508FD3FF92001300B
:10024000031903328935810BFD3381007F3F031988
:10025000033201098005043201088006000581008F
:100260007E3F85007D3F840017007D311C007211A8
:1002700008007E3F031913328935FE3F031C0B3201
:100280007F3F1C007F3F1C0000301C0015217C3F7D
:1002900081041700FD3F7F3F890AFF3FEA337D312C
:1002A0000800230017009200170091001700910723
:1002B0000301923D1513151400000000FD01080014
:1002C0002300910A0319920AF53303307D060319BE
:1002D000602123007D0803190632890B02321308BE
:1002E0000332130E0132140EF0391C00FD0A08000F
:1002F00065217D3F1C007D3F1C0039217F3F890A1D
:10030000FF3F080081352C301C0083301C00512138
:1003100000301C00782178217821782178217D31E6
:1003200008002000403589351C00183001020318F0
:1003300007324108810758301C0083301C00073207
:1003400081014135810770301C0083301C00512130
:10035000200042081C0043081C0000301C007821CB
:100360007821782123003030140503197821010801
:100370007D311C00080000301C0001081C007E3F7D
:100380007823891B13321C007C3F1C007C3F1C001F
:100390007E3F1C007E3FFD3F7F3FFE3F17008100F8
:1003A0008221810A7D3F043EFD3FE7337C31080016
:1003B0007908780403190F327F3F1C007F3F1C002F
:1003C0005F207A081C0082217F3F1C0004308102DC
:1003D0001700FF3FED337F3F2B3A031D02321C0015
:1003E00091337E3108007E3F03190C328903FE3FB2
:1003F00001081C007E3F1C0000301C0015217F31CD
:10040000810AF1337D3108007E3F03190C328903E4
:10041000FE3F7F3F1C007F3F1C0000301C00152169
:100420007F31810AF1337D31080000301C00EB2060
:1004300016301C0000301C0000301C000422163056
:100440001C000B301C0000301C0004220C301C006F
:1004500016301C0000301C00F3210D301C00003051
:100460001C0000301C00BB210D301C000C301C0097
:1004700001301C00BB2120000430C200C301C001B8
:10048000C101C401C501C601FC01721608000A3091
:100490001C0001081C007E3F1C000B2103190332C5
:1004A0007D3F890AFD3F7F31810BF3337E310800A8
:1004B000200007307505073A031D073AC0000330D6
:1004C0007605C1000430C200C30108000301C52342
:1004D0001C0000301C00810A0108C5231C007F3F5E
:1004E000890AFF3F7F3FC5231C00A620F21AFE3376
:1004F00074207C1A0B327F3F8903FF3F031DEB33CF
:100500003C30F300F215F219FE33E0337E3108007F
:1005100020004408F8004508F9002B301C00063084
:100520001C00D82120004608F800F9012B301C00DF
:1005300012301C00D82100301C0018301C00023082
:100540001C00BB216622721200301C0018301C00F7
:1005500002301C00BB2158229121170003193732A9
:100560000A30F300F215F219FE33912117007420BE
:1005700020007C08103A03191632103A203A031969
:100580001332203A013A03191432013A023A03199C
:100590000C32023A083A03191532083A043A0319A0
:1005A0000C32043A133212321132C1030330C10546
:1005B0000D32C10A0330C105093201304206031D64
:1005C000C20304320A304206031DC20AC533912118
:1005D0001700080087011F30860021000C309D00A5
:1005E00020309E0024000C122100F8308C052200DF
:1005F0008C100C103B00A101A201A701A8012B1730
:1006000022009D14230002309B009C019A01B0300F
:100610009E009D17CF309D053B00B101B201BF0187
:10062000F530B5000430B600BE01D030BB005E30FE
:10063000B3000030B400BF173D103C142100131765
:10064000C0308B00F001F101F201AC30F500E13077
:10065000F60015228822FD33AA0EE02AC404E02405
:100660002E0EE0282E0EE022AE0A20228E0EE02270
:100670008E08E02A220E2022AE0EE02AAE0E2022A4
:10068000AE3EA02A883660288E3EE028443EE02414
:100690008838E028CA38A02AAA34402AAE3E8028EA
:1006A000EA3880288436C022403000240020002010
:1006B0008C38E830443CE0324C34E0384436E230A8
:1006C000C03CC03CC03CC03CC0366234C036623422
:1006D000403E62324E30C838603CC834603CC8345A
:1006E000440400140F30001022020012F010001019
:1006F0000B0002320A32123217000B0013340B3493
:10070000103412340C341434FF3417000B000E3440
:100710000D340F340C3413341434FF3417000B0031
:10072000113412340C341334133415340A34FF34B6
:100730000B000234ED34B534DF342834D3344C3478
:10074000C7341E34BC348F34B1349834A7343034B9
:100750009E344F349534ED348C34043485348D34E8
:100760007D3481347634DA346F3493346934A6348A
:1007700063340F345E34C7345834CC3453341834B3
:100780004F3482344234003400340B0022342D3490
:1007900000340F3404341E3407340F3403340F3460
:1007A00000342D3405340F3409341E340C340F3426
:1007B0000A340F3408342D3407340F3408341E340F
:1007C0000A341E340C341E3408341E3405343C34D0
:1007D00005342D340D340F340F341E3411340F34DE
:1007E0000F340F340D342D340C340F340D341E34CB
:1007F0000C340F340A340F3408342D3407340F34DA
:1008000008341E340A341E340C341E3408341E34AA
:0608100005343C34053400
:040816000034003476
:020000040001F9
:02000E00E73FCA
:02001000FF1ED1
:00000001FF
