:020000040000FA
:0800000023008C010C16522AAA
:080008003B003D102000C90A75
:1000100071181C32700803190B32033A03190F329E
:1000200046307002031C3D327F3C0318C920393230
:100030003B009730B3000430B400BF1732323B00AE
:100040005E30B3000030B400BF172B320630721C94
:10005000013E7006031D0532F001F1010130F20688
:100060000900700803190732890303190A3289034A
:1000700003190C321632F636F50C0318B430F606B6
:100080001032F218F30B0D32F2100B327408031910
:100090000832F40B063272123B00AB1321000C162F
:1000A0000032F00A0319F10A0900F300F214F21801
:1000B000FE3308001130F700FA010A307A02031803
:1000C000FA00F80DF90DFA0DF70BF733FA360800C0
:1000D00000301C0021001D1404300032890BFD3358
:1000E0009D149D18FE331D1040301C02031802326F
:1000F00001161D3295301C02031802328116173288
:10010000B5301C020318023281151132C6301C02B0
:100110000318023201140B32D1301C0203180232D0
:1001200001150532D8301C02031801328114200059
:100130007C080106031D053248084902063C0318E5
:1001400081011700FC004908C800080021000C12BA
:100150003B00813501088C23A5008936A300010AE4
:100160008C23A6008936A4000318A3177F3117003B
:10017000F400AB17AF17721608003030840020303F
:100180008500813501358107170084070301853D0E
:1001900008000A300032890BFD3304081C000508F2
:1001A0001C0046307002893689361C00BD2006309E
:1001B0001C0023009D17230012009A002000111E2E
:1001C000FE33810BF83323009A012000111EFE3309
:1001D00023009D137F31170085001700840008005D
:1001E000BD2001368936893684070301853D0730F5
:1001F00081050130031903328935810BFD337F31CD
:100200000800F020800600050319F21508007E3F63
:10021000031910328935FE3F031C08327F3F891BCA
:1002200005327F3F1C007F3F1C0001217F3F890A70
:10023000FF3FED337D3108002300170091070301D4
:10024000923D1513151400000000140E0339031914
:100250000330FD0008002300910A0319920AF133CC
:1002600023007D08033A03190832033A023A0319BE
:100270000232130E033213080132140EF0391C003F
:10028000FD0308001C217D081C0030217D3F1C005F
:100290007D3F1C0007217F3F890AFF3F810BF5331B
:1002A000140E0339031902327D3108007F312B21EE
:1002B000EA3381352300403091008330920042219F
:1002C0000800F211200042081C0043081C004108ED
:1002D0001C0040358935183A03198135183A8107D1
:1002E00023006C30910083309200422100301C00CA
:1002F000F219810A080001080A00891B1032FF0068
:100300007E3F1C007E3F1C007F081C0059210130ED
:10031000810703018A3D7E3F043EFE3FEC337D3181
:10032000080001081C002B30FF3F790878040319EE
:100330000C327F3F1C007F3F1C005A207A081C00B3
:1003400059217F3FFC3EFF3FF0337F3F2B3A031D97
:1003500002321C00AE337E3108007F3F1C007F3F1D
:100360001C000121810BF9330121080041310A30C1
:10037000810001081C007E3F89031C00F020FE0064
:100380000005FF00063084077E0980057F08800491
:10039000810BEF337F3F8903FF3F031DE8337E313D
:1003A00008000A301C0001081C007E3F1C00F020E1
:1003B0000005031903327E3F890AFE3F810BF333A8
:1003C0007E31080000301C0015301C0000301C007D
:1003D0007F3F1C00D121170003190C320A3A031D7C
:1003E00007327F3F890AFF3F01081C00B621810ABE
:1003F000810BEC337F310800200007307505073A88
:10040000031D073AC00003307605C1000430C20066
:10041000C3013222031D721508000301B9231C0019
:1004200000301C00F21A0D32810A0108B9231C00A9
:100430007F3F890AFF3F7F3FB9231C00A620721A25
:10044000FE3368207C1A0B32FC1AF2167F3F8903B8
:10045000FF3F031DE7337E313C305520DE337E31D4
:1004600072110800612161217F312000170008000E
:1004700020004408F8004508F90006301C009121CE
:1004800020004608F8004708F90012301C009121AE
:10049000080000301C0018301C0084310D301C0096
:1004A0007B21080087011F30860002309B009C01E1
:1004B0009A01B0309E009D17CF309D0521000C3071
:1004C0009D0020309E00F8308C0524000C12220084
:1004D0008C100C100C1222009D143B00A101A201F3
:1004E000A701A8012B17B101B201BF01F530B5007A
:1004F0000430B600BE01D030BB005E30B300003027
:10050000B400BF173D103C1421001317C0308B00FE
:10051000F001F101F201AC30F500E130F6000030FD
:100520001C00BD20C0301C0000301A00810BFD33C0
:100530007F3100301C0015301C00AD210B301C0039
:1005400015301C00AD210B301C0016301C007F3F05
:100550001C007F3F1C0001217F3F8903FF3F031DDB
:10056000F63301210D301C0000301C008331FF30B8
:100570001C007B210D301C000C301C008431063027
:100580001C007B2172152000C401C501C601C701F2
:10059000382249220D224922FC21721D1F320A30C5
:1005A0001C0000301C007F3F1C007F3F1C00F0201F
:1005B000890980057F3F8903FF3F031DF433153010
:1005C0008100FF3F01081C00B621063055207F3F07
:1005D0008903FF3F031DF6337E31A13361211700EC
:1005E000083055206121170068202000FC1A0932CC
:1005F0007C181932FC180E32FC1923327C191C327B
:1006000024322000C30A32220319FB33C3036121C1
:1006100017002232C1030330C1053222031DC10A73
:100620000330C1051232C10A0330C1053222031D55
:10063000C1030330C1050932C2033222031DC20ABD
:100640000432C20A3222031DC203C30A3222031932
:10065000C533C303612117003822E22120000108BD
:10066000C6070301C73D81080319043201308935EB
:10067000810BFD33C4070301C53D7F3138228C3324
:10068000AA0EAE20C4044E202E0E8E202E0E2E203A
:10069000AE0A22208E0E2E208E08AE20220E2220A0
:1006A000AE0EAE20AE0E2220AE0EAA208806862008
:1006B0008E0E8E20440E4E2088088E20CA08AA2056
:1006C000AA04A420AE0E8820EA08882084062C20E4
:1006D00040004020001000008C38E830443C2E20C0
:1006E0004C348E204436E230CC20CC20CC20CC20A0
:1006F0006C2062346C206234E42062324E30C838A0
:10070000C620C834C620C834440404100F2000009A
:10071000440404100F2000000B000234ED34B53403
:10072000DF342834D3344C34C7341E34BC348F34D3
:10073000B1349834A73430349E344F349534ED348A
:100740008C34043485348D347D3481347634DA3419
:100750006F3493346934A63463340F345E34C73451
:100760005834CC34533418344F3482344234003447
:1007700000340B0022342D3400340F3404341E3482
:1007800007340F3403340F3400342D3405340F3460
:1007900009341E340C340F340A340F3408342D3429
:1007A00007340F3408341E340A341E340C341E341B
:1007B00008341E3405343C3405342D340D340F34E4
:1007C0000F341E3411340F340F340F340D342D34E4
:1007D0000C340F340D341E340C340F340A340F34FF
:1007E00008342D3407340F3408341E340A341E34D0
:1007F0000C341E3408341E3405343C3405341334B0
:100800000B34103412340C341434FF340E340D34E1
:100810000F340C3413341434FF34113412340C34C8
:0A0820001334133415340A34FF3486
:04082A000034003462
:020000040001F9
:02000E00E73FCA
:02001000FF1ED1
:00000001FF
