:020000040000FA
:0800000023008C010C16432AB9
:080008003B003D1071181E328F
:10001000700803190B32033A03191032463070028C
:10002000031C3E327F3C0318B9203A323B00973024
:10003000B3000430B400BF17721432323B005E309C
:10004000B3000030B400BF1772102A320630F21C21
:10005000013E7006031D0532F001F1010230F20687
:100060000900700803190732890303190F32890345
:10007000031911321532740803191232F40B1032BD
:10008000F2123B00AB1321000C160A327219F30B6B
:10009000073272110532F636F50C0318B430F60645
:1000A000F00A0319F10A0900F30072157219FE3300
:1000B00008001130F700FA010A307A020318FA003A
:1000C000F80DF90DFA0DF70BF733FA360800FC01BD
:1000D00021001D1404300032890BFD339D149D183E
:1000E000FE331D1040301C02031802327C161D32F4
:1000F00095301C0203180232FC161732B5301C0270
:1001000003180232FC151132C6301C0203180232E9
:100110007C140B32D1301C02031802327C150532DC
:10012000D8301C0203180132FC14080021000C1204
:100130003B00813501087D23A5008936A300010A13
:100140007D23A6008936A4000318A3177F3117006A
:10015000F400AB17AF17F2160800303084002030DF
:100160008500813501358107170084070301853D2E
:1001700008000A300032890BFD3304081C00050812
:100180001C0046307002893689361C00AD200630CE
:100190001C0023009D17230012009A002000111E4E
:1001A000FE33810BF8337F3123009A012000111EAA
:1001B000FE3323009D1317008500170084000800FC
:1001C000AD2001368936893684070301853D073025
:1001D00081050130031903328935810BFD337F31ED
:1001E0000800E020800600050319721608007E3F13
:1001F000031910328935FE3F031C08327F3F891BEB
:1002000005327F3F1C007F3F1C00F1207F3F890AA1
:10021000FF3FED337D3108002300170091070301F4
:10022000923D1513151400000000140E0339031934
:100230000330FD0008002300910A0319920AF133EC
:100240007D0803191B21033A03190832033A023AC5
:1002500003190232130E033213080132140EF0395F
:100260001C00FD0308000C217D081C0020217D3F9F
:100270001C007D3F1C00F7207F3F890AFF3F810B58
:10028000F533140E0339031902327D3108007F3132
:100290001B21EA33813523003130910083309200F5
:1002A000332108007212200042081C0043081C0081
:1002B00041081C0040358935183A03198135183A30
:1002C000810723005D30910083309200332100309C
:1002D0001C00721A810A080001080A00891B1032EA
:1002E000FF007E3F1C007E3F1C007F081C004A214F
:1002F0000130810703018A3D7E3F043EFE3FEC331F
:100300007D31080001081C002B30FF3F790878047C
:1003100003190C327F3F1C007F3F1C0059207A08D4
:100320001C004A217F3FFC3EFF3FF0337F3F2B3ACA
:10033000031D02321C00AE337E3108007F3F1C00DB
:100340007F3F1C00F120810BF933F120080041317F
:100350000A30810001081C007E3F89031C00E02058
:10036000FE000005FF00063084077E0980057F0837
:100370008004810BEF337F3F8903FF3F031DE83388
:100380007E3108000A301C0001081C007E3F1C0062
:10039000E0200005031903327E3F890AFE3F810BEE
:1003A000F3337E31080000301C0015301C00003093
:1003B0001C007F3F1C00C221170003190C320A3AAF
:1003C000031D07327F3F890AFF3F01081C00A72158
:1003D000810A810BEC337F3108002000073075055E
:1003E000073A031D073AC00003307605C100043008
:1003F000C200C3012322031DF21508000301AA2332
:100400001C0000301C00721B0D32810A0108AA2357
:100410001C007F3F890AFF3F7F3FAA231C009620D4
:10042000F21AFE3367207C1A0B32FC1A72177F3FD8
:100430008903FF3F031DE7337E313C305420DE3318
:100440007E31F2110800522152217F312000170025
:10045000080020004408F8004508F90006301C0098
:10046000822120004608F8004708F90012301C00DD
:100470008221080000301C0018301C008331FE303F
:100480001C006C21080087011F30860002309B0091
:100490009C019A01B0309E009D17CF309D05210030
:1004A0000C309D0020309E00F8308C0524000C128A
:1004B00022008C100C100C1222009D143B00A10194
:1004C000A201A701A8012B17B101B201BF01F530AC
:1004D000B5000430B600BE01D030BB005E30B300C2
:1004E0000030B400BF173D103C1421001317C0307A
:1004F0008B00F001F101F201AC30F500E130F600C3
:1005000000301C00AD20C0301C0000301A00810BF0
:10051000FD337F3100301C0015301C009E210B3054
:100520001C0015301C009E210B301C0016301C00D6
:100530007F3F1C007F3F1C00F1207F3F8903FF3F6E
:10054000031DF633F1200D301C0000301C008331F8
:10055000F0301C006C210D301C000C301C0083316D
:10056000F7301C006C21F2152000C401C501C60142
:10057000C70129223A22FE213A22ED21F21D1F3223
:100580000A301C0000301C007F3F1C007F3F1C0015
:10059000E020890980057F3F8903FF3F031DF43375
:1005A00015308100FF3F01081C00A72106305420B0
:1005B0007F3F8903FF3F031DF6337E31A133522174
:1005C0001700083054205221170067202000FC1A21
:1005D00009327C181932FC180E32FC1923327C19AE
:1005E0001C3224322000C30A23220319FB33C30325
:1005F000522117002232C1030330C1052322031DFB
:10060000C10A0330C1051232C10A0330C1052322D9
:10061000031DC1030330C1050932C2032322031D98
:10062000C20A0432C20A2322031DC203C30A2322C0
:100630000319C533C303522117002922D3212000F7
:100640000108C6070301C73D8108031904320130C0
:100650008935810BFD33C4070301C53D7F31292254
:100660008C33AA0EAE20C4044E202E0E8E202E0EE9
:100670002E20AE0A22208E0E2E208E08AE20220EB4
:100680002220AE0EAE20AE0E2220AE0EAA2088068C
:1006900086208E0E8E20440E4E2088088E20CA089A
:1006A000AA20AA04A420AE0E8820EA088820840686
:1006B0002C2040004020001000008C38E830443CE2
:1006C0002E204C348E204436E230CC20CC20CC205E
:1006D000CC206C2062346C206234E42062324E30D4
:1006E000C838C620C834C620C834440404100F20BB
:1006F0000000440404100F2000000B000234ED340D
:10070000B534DF342834D3344C34C7341E34BC34CD
:100710008F34B1349834A73430349E344F34953408
:10072000ED348C34043485348D347D348134763426
:10073000DA346F3493346934A63463340F345E345E
:10074000C7345834CC34533418344F3482344234A0
:10075000003400340B0022342D3400340F340434C0
:100760001E3407340F3403340F3400342D34053471
:100770000F3409341E340C340F340A340F34083467
:100780002D3407340F3408341E340A341E340C342C
:100790001E3408341E3405343C3405342D340D34F5
:1007A0000F340F341E3411340F340F340F340D3422
:1007B0002D340C340F340D341E340C340F340A3401
:1007C0000F3408342D3407340F3408341E340A34FF
:1007D0001E340C341E3408341E3405343C340534C5
:1007E00013340B34103412340C341434FF340E34FC
:1007F0000D340F340C3413341434FF3411341234E8
:0C0800000C341334133415340A34FF3464
:04080C000034003480
:020000040001F9
:02000E00E73FCA
:02001000FF1ED1
:00000001FF
