:020000040000FA
:0800000023008C010C16712B8A
:080008003B003D10711822328B
:10001000700803190F32033A03191432721944326B
:100020007008453C031840327008C53C031C3C3244
:10003000BA203A323B009730B3000430B400BF1707
:10004000721432323B005E30B3000030B400BF1790
:1000500072102A320630F21C013E7006031D053272
:10006000F001F1010230F2060900700803190732AD
:10007000890303190D3289030319113215327408EB
:1000800003191232F40B1032F2123B00AB130C3294
:10009000F30803190932F30B0732F2110532F63671
:1000A000F50C0318B430F606F00A0319F10A09003A
:1000B00072151130F700FA010A307A020318FA00BB
:1000C000F80DF90DFA0DF70BF733FA367211080037
:1000D000FB00FB357B357B070800FC01F21A0800AA
:1000E00021000C1621001D14003206300032890B4D
:1000F000FD339D149D18FE331D1040301C02031863
:1001000002327C161D3295301C0203180232FC1696
:100110001732B5301C0203180232FC151132C630FA
:100120001C02031802327C140B32D1301C0203185B
:1001300002327C150532D8301C0203180132FC143F
:1001400021000C12080021000C123B00813501082F
:100150002024A5008936A300010A2024A6008936A0
:10016000A4000318A31717001700F400AB17AF176C
:10017000F21608000A300032890BFD3304081C0017
:1001800005081C0000301C00303084002030850041
:100190004630700289368936682084070301853D20
:1001A0000630F70023009D17120023009A0020005C
:1001B000111EFE33F70BF83323009A012000111EA5
:1001C000FE3323009D1317008500170084000800EC
:1001D00072152030850030308400C0301C000030A3
:1001E0001A00810BFD337F31721108002030850029
:1001F000303084001700682084070301853D0136F4
:100200008936893684070301853D0730810508005A
:1002100003301C000D210108080072157E3F1C00F0
:100220007E3F1C000408FC3F0508FD3FF62001301E
:10023000031903328935810BFD3381007F3F0B00A9
:10024000063208320A320108000581000B3201092A
:100250008005083201088004053201088006000587
:10026000010681007E3F85007D3F840017007D31BF
:100270001C0072110800811B20322030010203187B
:100280001C327E3F031919328935FE3F031C11329F
:100290007F3F891B0E322F3C031C0F327F3F1C0017
:1002A0007F3F1C0002301C000D217C3F81041700A1
:1002B000FD3F7F3F890AFF3FE4337D310800230083
:1002C0001700920017009100170091070301923D5B
:1002D0001513151400000000FD0108002300910A09
:1002E0000319920AF53303307D0603196E212300AA
:1002F0007D0803190632890B023213080332130EEC
:100300000132140EF0391C00FD0A080073217D3FF4
:100310001C007D3F1C003B217F3F890AFF3F0800F6
:100320008135B4301C0083301C005F2100301C007C
:10033000862186218621862186217D3108002000A4
:10034000403589351C001830010203180732410876
:100350008107E0301C0083301C00073281014135E9
:100360008107F8301C0083301C005F212000420808
:100370001C0043081C0000301C00862186218621B9
:100380002300303014050319862101087D311C003B
:10039000080000301C0001081C007E3F0024891B5F
:1003A00013321C007C3F1C007C3F1C007E3F1C0065
:1003B0007E3FFD3F7F3FFE3F170081009021810A75
:1003C0007D3F043EFD3FE7337C3108007908780427
:1003D00003190F327F3F1C007F3F1C0058207A0812
:1003E0001C0090217F3F1C00043081021700FF3F5A
:1003F000ED337F3F2B3A031D02321C0091337E31D7
:1004000008007E3F03190C328903FE3F01081C00DF
:100410007E3F1C0002301C000D217F31810AF13328
:100420007D3108007E3F03190C328903FE3F7F3F78
:100430001C007F3F1C0002301C000D217F31810A0F
:10044000F1337D310800E82016301C0000301C001C
:1004500000301C00122216301C000B301C00003033
:100460001C0012220C301C0016301C0000301C0036
:1004700001220D301C0000301C0000301C00C9217E
:100480000D301C000C301C0001301C00C9217216FC
:100490002000C401C501C601C701080041310A306E
:1004A000810001081C007E3F89031C0008217F3F5A
:1004B0001C007D3F1C007E3F031D01301C000D21F0
:1004C0007E31810BEE337F3F8903FF3F031DE7330E
:1004D0007E3108000A301C0001081C007E3F1C0011
:1004E0000821031903327D3F890AFD3F7F31810BCB
:1004F000F3337E31080000301C0015301C00003042
:100500001C007F3F1C006A22170003190C320A3AB4
:10051000031D07327F3F890AFF3F01081C004E225E
:10052000810A810BEC337F3108002000073075050C
:10053000073A031D073AC00003307605C1000430B6
:10054000C200C3019F211700031D72169F211700CF
:10055000080003014D241C0000301C00810A010822
:100560004D241C007F3F890AFF3F7F3F4D241C0024
:10057000A320F21AFE336D207C1A0C327F3F8903D0
:10058000FF3F031DEB337E313C30F300F215F219CF
:10059000FE33DF337E3148227212080072139F212E
:1005A0001700031D72179F211700721F08002000FB
:1005B0007C1A0B32FC1A0A327C180932FC180B32F6
:1005C000FC190D327C190D32080008000800C10327
:1005D0000330C1050800C10A0330C1050800C20389
:1005E0000800C20A080020004408F8004508F90085
:1005F0002B301C0006301C00E62120004608F800C5
:100600004708F9002B301C0012301C00E6210800BE
:10061000F32200301C0018301C0002301C00C921DD
:10062000A92200301C0018301C0002301C00C92117
:100630009522721E09321E301C0013301C00A320AC
:10064000F21AFE332322E4339F2117000A30F3000D
:10065000F215F219FE339F2117006D2020007C1A3D
:100660000B32FC1A0A327C180E32FC180732FC19C5
:1006700012327C190D32113210320F32C1030330A5
:10068000C105CE220A32C10A0330C105CE2205328D
:10069000C203CE220232C20ACE2272132000C30A43
:1006A0009F211700031D72179F211700721FCC3363
:1006B0002000C3039F211700F3227B2220000108A2
:1006C000C6070301C73D810803190432013089358B
:1006D000810BFD33C4070301C53D7F31F322A833ED
:1006E000080087011F30860021000C309D0020305B
:1006F0009E0024000C122100F8308C0522008C1082
:100700000C100C123B00A101A201A701A8012B179C
:1007100022009D14230002309B009C019A01B030FE
:100720009E009D17CF309D053B00B101B201BF0176
:10073000F530B5000430B600BE01D030BB005E30ED
:10074000B3000030B400BF173D103C142100131754
:10075000C0308B00F001F101F201AC30F500E13066
:10076000F60023220823FD33AA0EE02AC404E02465
:100770002E0EE0282E0EE022AE0A20228E0EE0225F
:100780008E08E02A220E2022AE0EE02AAE0E202293
:10079000AE0EA02A880660288E0EE028440EE024C3
:1007A0008808E028CA08A02AAA04402AAE0E802899
:1007B000EA0880288406C02240000024002000208F
:1007C0008C38E830443CE0324C34E0384436E23097
:1007D000C03CC03CC03CC03CC0366234C036623411
:1007E000403E62324E30C838603CC834603CC83449
:1007F000440400140F30001022020012F010001008
:100800000B0002320A32123217000B0013340B3481
:10081000103412340C341434FF3417000B000E342F
:100820000D340F340C3413341434FF3417000B0020
:10083000113412340C341334133415340A34FF34A5
:100840000B000234ED34B534DF342834D3344C3467
:10085000C7341E34BC348F34B1349834A7343034A8
:100860009E344F349534ED348C34043485348D34D7
:100870007D3481347634DA346F3493346934A63479
:1008800063340F345E34C7345834CC3453341834A2
:100890004F3482344234003400340B0022342D347F
:1008A00000340F3404341E3407340F3403340F344F
:1008B00000342D3405340F3409341E340C340F3415
:1008C0000A340F3408342D3407340F3408341E34FE
:1008D0000A341E340C341E3408341E3405343C34BF
:1008E00005342D340D340F340F341E3411340F34CD
:1008F0000F340F340D342D340C340F340D341E34BA
:100900000C340F340A340F3408342D3407340F34C8
:1009100008341E340A341E340C341E3408341E3499
:0609200005343C340534EF
:040926000034003465
:020000040001F9
:02000E00E73FCA
:02001000FF1ED1
:00000001FF
