:020000040000FA
:0800000023008C010C16182BE3
:080008003B003D10711822328B
:10001000700803190F32033A03191432721945326A
:100020007008453C031841327008C53C031C3D3242
:10003000BB203B323B009730B3000430B400BF1705
:10004000721433323B005E30B3000030B400BF178F
:1000500072102B320630F21C013E7006031D053271
:10006000F001F1010230F2060900700803190732AD
:10007000890303190D3289030319113216327408EA
:1000800003191332F40B1132F2123B00AB130D3291
:10009000F30803190A32F30B0832F2110632F6366E
:1000A000F50C0318B430F6060032F00A0319F10A11
:1000B000090072151130F700FA010A307A020318AC
:1000C000FA00F80DF90DFA0DF70BF733FA36721145
:1000D0000800FB00FB357B357B070800FC01F21AAA
:1000E000080021000C1621001D14003206300032D9
:1000F000890BFD339D149D18FE331D1040301C02EA
:10010000031802327C161D3295301C02031802328D
:10011000FC161732B5301C0203180232FC151132DE
:10012000C6301C02031802327C140B32D1301C0280
:10013000031802327C150532D8301C020318013234
:10014000FC1421000C12080021000C123B00813528
:100150000108C723A5008936A300010AC723A6000A
:100160008936A4000318A31717001700F400AB1773
:10017000AF17F21608000A300032890BFD3304086D
:100180001C0005081C0000301C00303084002030AA
:10019000850046307002893689366920840703015C
:1001A000853D0630F70023009D17120023009A00BA
:1001B0002000111EFE33F70BF83323009A012000B4
:1001C000111EFE3323009D131700850017008400C5
:1001D000080072152030850030308400C0301C00CB
:1001E0007F3F1A00810BFD337E31721108002030F1
:1001F0008500303084001700692084070301853DA5
:1002000001368936893684070301853D073081052B
:10021000080002301C000E210108080072157E3F04
:100220001C007E3F1C000408FC3F0508FD3FF72032
:100230000130031903328935810BFD3381007F3F83
:1002400003190D32890303190D328903031903328F
:10025000010880040C320108000581000832010900
:1002600080050532010880060005010681007E3FF9
:1002700085007D3F840017007D311C00721108004D
:10028000811B20322030010203181C327E3F0319EB
:1002900019328935FE3F031C11327F3F891B0E3214
:1002A0002F3C031C0F327F3F1C007F3F1C0001309E
:1002B0001C000E217C3F81041700FD3F7F3F890A0F
:1002C000FF3FE4337D310800230017009200170040
:1002D0009100170091070301923D151315140000BA
:1002E0000000FD0108002300910A0319920AF5336A
:1002F00003307D060319732123007D08031906329C
:10030000890B023213080332130E0132140EF03936
:100310001C00FD0A080078217D3F1C007D3F1C0069
:1003200040217F3F890AFF3F080081355B301C0078
:1003300083301C00642100301C008B218B218B2119
:100340008B218B217D3108002000403589351C0030
:1003500018300102031807324108810787301C005A
:1003600083301C0007328101413581079F301C001A
:1003700083301C006421200042081C0043081C003C
:1003800000301C008B218B218B2123003030140581
:1003900003198B2101087D311C00080000301C006E
:1003A00001081C007E3FA723891B13321C007C3FE1
:1003B0001C007C3F1C007E3F1C007E3FFD3F7F3FBA
:1003C000FE3F170081009521810A7D3F043EFD3FDD
:1003D000E7337C3108007908780403190F327F3F36
:1003E0001C007F3F1C0059207A081C0095217F3F8C
:1003F0001C00043081021700FF3FED337F3F2B3A92
:10040000031D02321C0091337E3108007E3F031928
:100410000C328903FE3F01081C007E3F1C000130A6
:100420001C000E217F31810AF1337D3108007E3FAF
:1004300003190C328903FE3F7F3F1C007F3F1C00E5
:1004400001301C000E217F31810AF1337D3108001B
:1004500000301C00E92016301C0000301C00003069
:100460001C00172216301C000B301C0000301C0032
:1004700017220C301C0016301C0000301C00062215
:100480000D301C0000301C0000301C00CE210D304F
:100490001C000C301C0001301C00CE212000043058
:1004A000C200C301C001C101C401C501C601FC01F4
:1004B0007216080041310A30810001081C007D3F9E
:1004C0001C000921031900301C00031D03301C000F
:1004D0000E217F31810BF1337F3F8903FF3F7E3F48
:1004E0008903FE3F031DE7337D3108000A301C00FD
:1004F00001081C007E3F1C000921031903327D3FC7
:10050000890AFD3F7F31810BF3337E3108000800FB
:10051000200007307505073A031D073AC000033075
:100520007605C1000430C200C30108000301F423B2
:100530001C0000301C00810A0108F4231C007F3FCE
:10054000890AFF3F7F3FF4231C00A420F21AFE33E8
:100550006E207C1A0B327F3F8903FF3F031DEB3374
:100560003C30F300F215F219FE33E0337E3108001F
:1005700020004408F8004508F9002B301C00063024
:100580001C00EB2120004608F800F9012B301C006C
:1005900012301C00EB2100301C0018301C0002300F
:1005A0001C00CE219622721200301C0018301C0054
:1005B00002301C00CE2188228722A4211700031DAF
:1005C00034320A30F300F215F219FE33A421170079
:1005D0006E2020007C08103A03191632103A203A97
:1005E00003191332203A013A03191432013A023A3C
:1005F00003190C32023A083A03191232083A043A43
:1006000003190C32043A10320F320E32C103033098
:10061000C1050A32C10A0330C1050632C2030432E1
:100620000A304206031DC20AC733A421170008007E
:1006300087011F30860021000C309D0020309E0075
:1006400024000C122100F8308C0522008C100C10B4
:100650000C123B00A101A201A701A8012B17220047
:100660009D14230002309B009C019A01B0309E0033
:100670009D17CF309D053B00B101B201BF01F530A0
:10068000B5000430B600BE01D030BB005E30B30010
:100690000030B400BF173D103C1421001317C030C8
:1006A0008B00F001F101F201AC30F500E130F60011
:1006B0002822B822FD33AA0EE02AC404E0242E0E1C
:1006C000E0282E0EE022AE0A20228E0EE0228E08B6
:1006D000E02A220E2022AE0EE02AAE0E2022AE0E1E
:1006E000A02A880660288E0EE028440EE0248808A0
:1006F000E028CA08A02AAA04402AAE0E8028EA08E8
:1007000080288406C02240000024002000208C386D
:10071000E830443CE0324C34E0384436E230C03C0F
:10072000C03CC03CC03CC0366234C0366234403E3F
:1007300062324E30C838603CC834603CC83444042F
:1007400000140F30001022020012F01000100B00F5
:1007500002320A32123217000B0013340B341034F9
:1007600012340C341434FF3417000B000E340D34E3
:100770000F340C3413341434FF3417000B001134CD
:1007800012340C341334133415340A34FF340B0090
:100790000234ED34B534DF342834D3344C34C73428
:1007A0001E34BC348F34B1349834A73430349E3482
:1007B0004F349534ED348C34043485348D347D34A9
:1007C00081347634DA346F3493346934A634633444
:1007D0000F345E34C7345834CC34533418344F3467
:1007E00082344234003400340B0022342D3400347F
:1007F0000F3404341E3407340F3403340F34003400
:100800002D3405340F3409341E340C340F340A34BB
:100810000F3408342D3407340F3408341E340A34AE
:100820001E340C341E3408341E3405343C34053474
:100830002D340D340F340F341E3411340F340F3473
:100840000F340D342D340C340F340D341E340C346D
:100850000F340A340F3408342D3407340F3408347D
:100860001E340A341E340C341E3408341E3405344D
:040870003C340534DB
:040874000034003418
:020000040001F9
:02000E00E73FCA
:02001000FF1ED1
:00000001FF
