:020000040000FA
:0800000023008C010C16522BA9
:080008003B003D10711822328B
:10001000700803190F32033A03191432721944326B
:100020007008453C031840327008C53C031C3C3244
:10003000C0203A323B009730B3000430B400BF1701
:10004000721432323B005E30B3000030B400BF1790
:1000500072102A320630F21C013E7006031D053272
:10006000F001F1010230F2060900700803190732AD
:10007000890303190D3289030319113215327408EB
:1000800003191232F40B1032F2123B00AB130C3294
:10009000F30803190932F30B0732F2110532F63671
:1000A000F50C0318B430F606F00A0319F10A09003A
:1000B00072151130F700FA010A307A020318FA00BB
:1000C000F80DF90DFA0DF70BF733FA367211080037
:1000D000FC01F21A080021000C1621001D14043046
:1000E0000032890BFD339D149D18FE331D104030E6
:1000F0001C02031802327C161D3295301C020318B4
:100100000232FC161732B5301C0203180232FC15FD
:100110001132C6301C02031802327C140B32D1306B
:100120001C02031802327C150532D8301C02031859
:100130000132FC1421000C12080021000C123B00BB
:10014000813501080124A5008936A300010A012494
:10015000A6008936A4000318A31717001700F4009F
:10016000AB17AF17F216080030308400203085003E
:10017000813501358107170084070301853D08009B
:100180000A300032890BFD3304081C0005081C00EE
:1001900046307002893689361C00B42006301C00B7
:1001A00023009D17120023009A002000111EFE3329
:1001B000810BF8337F3123009A012000111EFE339A
:1001C00023009D1317008500170084000800721596
:1001D00000301C00B420C0301C0000301A00810B1D
:1001E000FD337F31721108007215B4200136893653
:1001F000893684070301853D0730810501300319E5
:1002000003328935810BFD337F3172110800F420F0
:1002100080040800F420890980050800F420000506
:100220000800F420800600050030031901301C008E
:100230000800811B1E322030010203181A327E3F53
:10024000031917328935FE3F031C0F327F3F891B8C
:100250000C322F3C031C0D327F3F1C007F3F1C00E3
:1002600011217C3F81041700FD3F7F3F890AFF3F3A
:10027000E6337D310800230017009200170091003B
:10028000170091070301923D15131514000000009B
:10029000FD0108002300910A0319920AF533033087
:1002A0007D0603194A2123007D0803190632890BB4
:1002B000023213080332130E0132140EF0391C00FF
:1002C000FD0A08004F217D3F1C007D3F1C001921C5
:1002D0007F3F890AFF3F0800813595301C0083303D
:1002E0001C003B2100301C0062216221622162213E
:1002F00062217D3108002000403589351C0018300E
:1003000001020318073241088107C1301C00833005
:100310001C000732810141358107D9301C00833030
:100320001C003B21200042081C0043081C00003038
:100330001C00622162216221230030301405031960
:10034000622101087D311C00080000301C000108FA
:100350001C007E3FE123891B0E321C007C3F1C00E9
:100360007C3F1C007E3F1C006C217F31810A7D3F59
:10037000043EFD3FEC337C31080079087804031912
:100380000F327F3F1C007F3F1C0058207A081C0062
:100390006C217F3F1C00043081021700FF3FED33CA
:1003A0007F3F2B3A031D02321C0096337E3108003A
:1003B0007E3F03190A328903FE3F01081C007E3F7D
:1003C0001C0011217F31810AF3337D3108007E3F0B
:1003D00003190A328903FE3F7F3F1C007F3F1C0048
:1003E00011217F31810AF3337D310800E720163077
:1003F0001C0000301C0000301C00E72116301C00DF
:100400000B301C0000301C00E7210C301C001630A3
:100410001C0000301C00D8210D301C0000301C00D6
:1004200000301C00A5210D301C000C301C000130D8
:100430001C00A52172162000C401C501C601C70118
:10044000080041310A30810001081C007E3F890309
:100450001C000E21FE0001081C007E3F1C00FE084F
:10046000031D02320A2101320721810BED337F3F48
:100470008903FF3F031DE6337E3108000A301C006C
:1004800001081C007E3F1C000E21031903327E3F31
:10049000890AFE3F810BF4337E31080000301C00D6
:1004A00015301C0000301C007F3F1C003E2217004E
:1004B00003190C320A3A031D07327F3F890AFF3FB6
:1004C00001081C002122810A810BEC337F310800D6
:1004D000200007307505073A031D073AC0000330B6
:1004E0007605C1000430C200C3017B211700031D43
:1004F00072167B211700080003012E241C00003017
:100500001C00810A01082E241C007F3F890AFF3F3E
:100510007F3F2E241C009D20F21AFE3368207C1A97
:100520000C327F3F8903FF3F031DEB337E313C30AC
:10053000F300F215F219FE33DF337E311B22721203
:10054000080072137B211700031D72177B2117000F
:10055000721F08002000FC1A09327C180932FC18AE
:100560000B32FC190D327C190D320800C303080050
:10057000C1030330C1050800C10A0330C1050800EA
:10058000C2030800C20A080020004408F800450819
:10059000F9002B301C0006301C00BD21200046084D
:1005A000F8004708F9002B301C0012301C00BD2158
:1005B000080003301C001E301C0000301C009D2071
:1005C000F21AFE330F30F300F215F219FE33810BED
:1005D000F2337F310800C42200301C0018301C00A8
:1005E00002301C00A5217C2200301C0018301C00A9
:1005F00002301C00A5216822721E0332D922F62186
:10060000EA337B2117000A30F300F215F219FE33AA
:100610007B21170068202000FC1A09327C18143254
:10062000FC180D32FC1918327C19133217322000D5
:10063000C30AA122721FFB337B2117001E32C103A4
:100640000330C105A1220A32C10A0330C105A1222B
:100650000532C203A1220232C20AA1227213200073
:10066000C30A7B211700031D72177B211700721F1D
:10067000C8332000C3037B211700C4224E22200070
:100680000108C6070301C73D810803190432013080
:100690008935810BFD33C4070301C53D7F31C42279
:1006A000AA33080087011F30860021000C309D000E
:1006B00020309E0024000C122100F8308C0522000E
:1006C0008C100C100C123B00A101A201A701A80183
:1006D0002B1722009D14230002309B009C019A01DD
:1006E000B0309E009D17CF309D053B00B101B20197
:1006F000BF01F530B5000430B600BE01D030BB00FC
:100700005E30B3000030B400BF173D103C14210030
:100710001317C0308B00F001F101F201AC30F5008D
:10072000E130F600F621EB22FD33AA0EE02AC404E4
:10073000E0242E0EE0282E0EE022AE0A20228E0E9D
:10074000E0228E08E02A220E2022AE0EE02AAE0E13
:100750002022AE0EA02A880660288E0EE028440EC5
:10076000E0248808E028CA08A02AAA04402AAE0E7D
:100770008028EA0880288406C02240000024002047
:1007800000208C38E830443CE0324C34E0384436C9
:10079000E230C03CC03CC03CC03CC0366234C036D5
:1007A0006234403E62324E30C838603CC834603CEF
:1007B000C834440400140F30001022020012F0105C
:1007C00000100B0002320A32123217000B001334F1
:1007D0000B34103412340C341434FF3417000B0073
:1007E0000E340D340F340C3413341434FF3417002A
:1007F0000B00113412340C341334133415340A340E
:10080000FF340B000234ED34B534DF342834D334F4
:100810004C34C7341E34BC348F34B1349834A734CC
:1008200030349E344F349534ED348C340434853474
:100830008D347D3481347634DA346F3493346934D2
:10084000A63463340F345E34C7345834CC34533454
:1008500018344F3482344234003400340B002234D4
:100860002D3400340F3404341E3407340F34033471
:100870000F3400342D3405340F3409341E340C3455
:100880000F340A340F3408342D3407340F3408344D
:100890001E340A341E340C341E3408341E3405341D
:1008A0003C3405342D340D340F340F341E341134E0
:1008B0000F340F340F340D342D340C340F340D3409
:1008C0001E340C340F340A340F3408342D340734FA
:1008D0000F3408341E340A341E340C341E340834E9
:0808E0001E3405343C340534DC
:0408E80000340034A4
:020000040001F9
:02000E00E73FCA
:02001000FF1ED1
:00000001FF
