:020000040000FA
:0800000023008C010C167B2A81
:080008003B003D1071181E328F
:10001000700803190B32033A03191032463070028C
:10002000031C3E327F3C0318BD203A323B00973020
:10003000B3000430B400BF17721432323B005E309C
:10004000B3000030B400BF1772102A320630F21C21
:10005000013E7006031D0532F001F1010230F20687
:100060000900700803190732890303190D32890347
:10007000031911321532740803191232F40B1032BD
:10008000F2123B00AB130C32F30803190932F30BE5
:10009000073272110532F636F50C0318B430F60645
:1000A000F00A0319F10A0900F30072157219FE3300
:1000B00008001130F700FA010A307A020318FA003A
:1000C000F80DF90DFA0DF70BF733FA360800FC01BD
:1000D00021000C1621001D1404300032890BFD3361
:1000E0009D149D18FE331D1040301C02031802326F
:1000F0007C161D3295301C0203180232FC16173292
:10010000B5301C0203180232FC151132C6301C0235
:10011000031802327C140B32D1301C020318023255
:100120007C150532D8301C0203180132FC14210062
:100130000C12080021000C123B0081350108A3239A
:10014000A5008936A300010AA323A6008936A400CE
:100150000318A3177F311700F400AB17AF17F2167F
:10016000080030308400203085008135013581075A
:10017000170084070301853D08000A300032890B0F
:10018000FD3304081C0005081C0046307002893647
:1001900089361C00B12006301C0023009D17230067
:1001A00012009A002000111EFE33810BF8337F31BC
:1001B00023009A012000111EFE3323009D13170017
:1001C000850017008400080000301C00B120C030FA
:1001D0001C0000301A00810BFD337F310800B12074
:1001E00001368936893684070301853D073081054C
:1001F0000130031903328935810BFD337F3108004B
:10020000EF2080040800EF20890980050800EF2016
:1002100000050800EF20800600050319721608008B
:100220007E3F031910328935FE3F031C08327F3FA1
:10023000891B05327F3F1C007F3F1C000A217F3F46
:10024000890AFF3FED337D31080023001700910735
:100250000301923D1513151400000000140E03391C
:1002600003190330FD0008002300910A0319920AC4
:10027000F1337D0803193421033A03190832033A94
:10028000023A03190232130E033213080132140E1C
:10029000F0391C00FD03080025217D081C003921D0
:1002A0007D3F1C007D3F1C0010217F3F890AFF3FDE
:1002B000810BF533140E0339031902327D31080026
:1002C0007F313421EA338135230057309100833068
:1002D00092004C2108007212200042081C004308C2
:1002E0001C0041081C0040358935183A0319813536
:1002F000183A8107230083309100833092004C210B
:1003000000301C00721A810A080001080A00891BCB
:1003100011321C007D3F1C007D3F1C007E3F1C00F5
:1003200063217F310130810703018A3D7E3F043E16
:10033000FE3FEB337D31080001081C002B30FF3FEE
:100340007908780403190F327F3F1C007F3F1C009F
:1003500059207A081C0063217F3F1C000430810271
:100360001700FF3FED337F3F2B3A031D02321C0085
:10037000AA337E3108007E3F031909328903FE3F0C
:1003800001081C007E3F1C000A21810AF4337D31E4
:1003900008007E3F031909328903FE3F7F3F1C009E
:1003A0007F3F1C000A21810AF4337D31080041316E
:1003B0000A30810001081C007E3F89031C000721D0
:1003C000FE0001081C007E3F1C00FE08031D0232D7
:1003D000032101320021810BED337F3F8903FF3F71
:1003E000031DE6337E3108000A301C0001081C00A2
:1003F0007E3F1C000721031903327E3F890AFE3F1E
:10040000810BF4337E31080000301C0015301C00D5
:1004100000301C007F3F1C00F421170003190C3230
:100420000A3A031D07327F3F890AFF3F01081C007B
:10043000D721810A810BEC337F310800200007307F
:100440007505073A031D073AC00003307605C10061
:100450000430C200C3015B22031DF2150800030132
:10046000D0231C0000301C00721B0D32810A0108D1
:10047000D0231C007F3F890AFF3F7F3FD0231C0011
:100480009A20F21AFE3367207C1A0B32FC1A72177C
:100490007F3F8903FF3F031DE7337E313C3054200B
:1004A000DE337E315522F21108002000C401C5015F
:1004B000C601C70108006B216B217F3120001700A6
:1004C000080020004408F8004508F90006301C0028
:1004D0009C2120004608F8004708F90012301C0053
:1004E0009C21080000301C0018301C00843124308E
:1004F0001C008521080087011F30860021000C3078
:100500009D0020309E0024000C122100F8308C0544
:1005100022008C100C100C123B00A101A201A701BB
:10052000A8012B1722009D14230002309B009C0180
:100530009A01B0309E009D17CF309D053B00B10160
:10054000B201BF01F530B5000430B600BE01D030B5
:10055000BB005E30B3000030B400BF173D103C1448
:1005600021001317C0308B00F001F101F201AC3013
:10057000F500E130F600E42016301C001C000301F9
:100580001C001C00C9210B301C0000301C00C921BC
:100590000C301C0016301C0000301C00BB210D303C
:1005A0001C0000301C00843116301C0085210D30E9
:1005B0001C000C301C0084311D301C008521F215FC
:1005C0005522612272222F2272221E22F21D1D321A
:1005D0000A301C0000301C007F3F1C007F3F1C00C5
:1005E00003217F3F8903FF3F031DF6331530810050
:1005F000FF3F01081C00D721063054207F3F8903AC
:10060000FF3F031DF6337E31B6336B2117000A30EE
:1006100054206B21170067202000FC1A09327C1837
:100620001932FC180E32FC1923327C191C32243288
:100630002000C30A5B220319FB33C3036B2117009D
:100640002232C1030330C1055B22031DC10A0330FE
:10065000C1051232C10A0330C1055B22031DC1036B
:100660000330C1050932C2035B22031DC20A0432F2
:10067000C20A5B22031DC203C30A5B220319C533EE
:10068000C3036B2117006122042220000108C60762
:100690000301C73D81080319043201308935810BFC
:1006A000FD33C4070301C53D7F3161228E33AA0E9D
:1006B000AE20C4044E202E0E8E202E0E2E20AE0A0A
:1006C00022208E0E2E208E08AE20220E2220AE0E6C
:1006D000AE20AE0E2220AE0EAA20880686208E0EF8
:1006E0008E20440E4E2088088E20CA08AA20AA0414
:1006F000A420AE0E8820EA08882084062C20400022
:100700004020001000008C38E830443C2E204C344F
:100710008E204436E230CC20CC20CC20CC206C2063
:1007200062346C206234E42062324E30C838C62015
:10073000C834C620C834440404100F200000440408
:1007400004100F2000000B000234ED34B534DF3408
:100750002834D3344C34C7341E34BC348F34B134D1
:100760009834A73430349E344F349534ED348C347F
:10077000043485348D347D3481347634DA346F3406
:1007800093346934A63463340F345E34C734583438
:10079000CC34533418344F3482344234003400346F
:1007A0000B0022342D3400340F3404341E3407344B
:1007B0000F3403340F3400342D3405340F3409342E
:1007C0001E340C340F340A340F3408342D340734FB
:1007D0000F3408341E340A341E340C341E340834EA
:1007E0001E3405343C3405342D340D340F340F34AD
:1007F0001E3411340F340F340F340D342D340C34B7
:100800000F340D341E340C340F340A340F340834D2
:100810002D3407340F3408341E340A341E340C349B
:100820001E3408341E3405343C34053413340B3480
:10083000103412340C341434FF340E340D340F34AD
:100840000C3413341434FF34113412340C34133494
:08085000133415340A34FF349F
:040858000034003434
:020000040001F9
:02000E00E73FCA
:02001000FF1ED1
:00000001FF
