:020000040000FA
:0800000023008C010C16472BB4
:080008003B003D10711822328B
:10001000700803190F32033A03191432721944326B
:100020007008453C031840327008C53C031C3C3244
:10003000C3203A323B009730B3000430B400BF17FE
:10004000721432323B005E30B3000030B400BF1790
:1000500072102A320630F21C013E7006031D053272
:10006000F001F1010230F2060900700803190732AD
:10007000890303190D3289030319113215327408EB
:1000800003191232F40B1032F2123B00AB130C3294
:10009000F30803190932F30B0732F2110532F63671
:1000A000F50C0318B430F606F00A0319F10A09003A
:1000B00072151130F700FA010A307A020318FA00BB
:1000C000F80DF90DFA0DF70BF733FA367211080037
:1000D000FE00FE357E357E070800FC01F21A08009E
:1000E00021000C1621001D1404300032890BFD3351
:1000F0009D149D18FE331D1040301C02031802325F
:100100007C161D3295301C0203180232FC16173281
:10011000B5301C0203180232FC151132C6301C0225
:10012000031802327C140B32D1301C020318023245
:100130007C150532D8301C0203180132FC14210052
:100140000C12080021000C123B0081350108F62337
:10015000A5008936A300010AF623A6008936A4006B
:100160000318A31717001700F400AB17AF17F21608
:100170000800303084002030850017006820840794
:100180000301853D08000A300032890BFD33040865
:100190001C0005081C0046307002893689361C0098
:1001A000B92006301C0023009D17120023009A007E
:1001B0002000111EFE33810BF8337F3123009A019A
:1001C0002000111EFE3323009D1317008500170029
:1001D00084000800721500301C00B920C0301C00DB
:1001E00000301A00810BFD337F3172110800721547
:1001F000B92001368936893684070301853D0730E9
:1002000081050130031903328935810BFD337F31BC
:1002100072110800F72080040800F7208909800582
:100220000800F72000050800F720800600050030D0
:10023000031901301C000800811B1E32203001020E
:1002400003181A327E3F031917328935FE3F031C0B
:100250000F327F3F891B0C322F3C031C0D327F3F36
:100260001C007F3F1C0014217C3F81041700FD3FD0
:100270007F3F890AFF3FE6337D31080023001700E6
:10028000920017009100170091070301923D15138A
:10029000151400000000FD0108002300910A031955
:1002A000920AF53303307D0603194D2123007D08A2
:1002B00003190632890B023213080332130E01327E
:1002C000140EF0391C00FD0A080052217D3F1C006D
:1002D0007D3F1C001C217F3F890AFF3F08008135BC
:1002E0008A301C0083301C003E2100301C00652138
:1002F00065216521652165217D310800200040359B
:1003000089351C00183001020318073241088107A3
:10031000B6301C0083301C00073281014135810753
:10032000CE301C0083301C003E21200042081C00FF
:1003300043081C0000301C00652165216521230055
:10034000303014050319652101087D311C000800B7
:1003500000301C0001081C007E3FD623891B0E3292
:100360001C007C3F1C007C3F1C007E3F1C006F215A
:100370007F31810A7D3F043EFD3FEC337C31080034
:100380007908780403190F327F3F1C007F3F1C005F
:1003900058207A081C006F217F3F1C000430810226
:1003A0001700FF3FED337F3F2B3A031D02321C0045
:1003B00096337E3108007E3F03190A328903FE3FDF
:1003C00001081C007E3F1C0014217F31810AF33399
:1003D0007D3108007E3F03190A328903FE3F7F3FCB
:1003E0001C007F3F1C0014217F31810AF3337D31D3
:1003F0000800EA2016301C0000301C0000301C00F1
:10040000EA2116301C000B301C0000301C00EA21D1
:100410000C301C0016301C0000301C00DB210D309D
:100420001C0000301C0000301C00A8210D301C00F6
:100430000C301C0001301C00A82172162000C401E1
:10044000C501C601C701080041310A308100010819
:100450001C007E3F89031C001121FE0001081C00C6
:100460007E3F1C00FE08031D02320D2101320A21CD
:10047000810BED337F3F8903FF3F031DE6337E3160
:1004800008000A301C0001081C007E3F1C001121DE
:10049000031903327E3F890AFE3F810BF4337E311C
:1004A000080000301C0015301C0000301C007F3F8D
:1004B0001C004122170003190C320A3A031D0732AF
:1004C0007F3F890AFF3F01081C002422810A810B1B
:1004D000EC337F310800200007307505073A031D13
:1004E000073AC00003307605C1000430C200C301E2
:1004F0007E211700031D72167E21170008000301DC
:1005000023241C0000301C00810A010823241C0045
:100510007F3F890AFF3F7F3F23241C00A220F21A5D
:10052000FE336D207C1A0C327F3F8903FF3F031D91
:10053000EB337E313C30F300F215F219FE33DF333A
:100540007E311E227212080072137E211700031DD5
:1005500072177E211700721F080020007C1A0B32D0
:10056000FC1A0A327C180932FC180B32FC190D32C5
:100570007C190D32080008000800C1030330C105D2
:100580000800C10A0330C1050800C2030800C20AFE
:10059000080020004408F8004508F9002B301C0032
:1005A00006301C00C02120004608F8004708F9006A
:1005B0002B301C0012301C00C0210800C922003062
:1005C0001C0018301C0002301C00A8217F220030C3
:1005D0001C0018301C0002301C00A8216B22721E67
:1005E00009321E301C0013301C00A220F21AFE3308
:1005F000F921E4337E2117000A30F300F215F219D5
:10060000FE337E2117006D2020007C1A0B32FC1A6D
:100610000A327C180E32FC180732FC1912327C198F
:100620000D32113210320F32C1030330C105A42242
:100630000A32C10A0330C105A4220532C203A42232
:100640000232C20AA42272132000C30A7E211700BC
:10065000031D72177E211700721FCC332000C303C5
:100660007E211700C922512220000108C60703017C
:10067000C73D81080319043201308935810BFD33F0
:10068000C4070301C53D7F31C922A8330800870193
:100690001F30860021000C309D0020309E00240079
:1006A0000C122100F8308C0522008C100C100C125A
:1006B0003B00A101A201A701A8012B1722009D1454
:1006C000230002309B009C019A01B0309E009D17D0
:1006D000CF309D053B00B101B201BF01F530B5003F
:1006E0000430B600BE01D030BB005E30B300003035
:1006F000B400BF173D103C1421001317C0308B000D
:10070000F001F101F201AC30F500E130F600F92121
:10071000DE22FD33AA0EE02AC404E0242E0EE028D7
:100720002E0EE022AE0A20228E0EE0228E08E02A53
:10073000220E2022AE0EE02AAE0E2022AE0EA02AFD
:10074000880660288E0EE028440EE0248808E02801
:10075000CA08A02AAA04402AAE0E8028EA088028E7
:100760008406C02240000024002000208C38E8309D
:10077000443CE0324C34E0384436E230C03CC03CCB
:10078000C03CC03CC0366234C0366234403E623247
:100790004E30C838603CC834603CC834440400144F
:1007A0000F30001022020012F01000100B00023275
:1007B0000A32123217000B0013340B341034123487
:1007C0000C341434FF3417000B000E340D340F3486
:1007D0000C3413341434FF3417000B00113412346A
:1007E0000C341334133415340A34FF340B00023440
:1007F000ED34B534DF342834D3344C34C7341E34AC
:10080000BC348F34B1349834A73430349E344F34F0
:100810009534ED348C34043485348D347D34813416
:100820007634DA346F3493346934A63463340F3455
:100830005E34C7345834CC34533418344F34823493
:100840004234003400340B0022342D3400340F3491
:1008500004341E3407340F3403340F3400342D3481
:1008600005340F3409341E340C340F340A340F3479
:1008700008342D3407340F3408341E340A341E343F
:100880000C341E3408341E3405343C3405342D3405
:100890000D340F340F341E3411340F340F340F3431
:1008A0000D342D340C340F340D341E340C340F340D
:1008B0000A340F3408342D3407340F3408341E340E
:1008C0000A341E340C341E3408341E3405343C34CF
:0208D0000534ED
:0408D20000340034BA
:020000040001F9
:02000E00E73FCA
:02001000FF1ED1
:00000001FF
