:020000040000FA
:0800000023008C010C16382BC3
:080008003B003D10711820328D
:10001000700803190D32033A031912327008453C77
:10002000031840327008C53C031C3C32BC203A32F5
:100030003B009730B3000430B400BF177214323263
:100040003B005E30B3000030B400BF1772102A329C
:100050000630F21C013E7006031D0532F001F1016D
:100060000230F206090070080319073289030319E8
:100070000D32890303191132153274080319123233
:10008000F40B103272123B00AB130C32F30803195D
:100090000932F30B073272110532F636F50C0318EC
:1000A000B430F606F00A0319F10A09001130F7001E
:1000B000FA010A307A020318FA00F80DF90DFA0D68
:1000C000F70BF733FA360800FC01721A080021001A
:1000D0000C1621001D1404300032890BFD339D14D1
:1000E0009D18FE331D1040301C02031802327C168E
:1000F0001D3295301C0203180232FC161732B5303F
:100100001C0203180232FC151132C6301C020318FF
:1001100002327C140B32D1301C02031802327C15DF
:100120000532D8301C0203180132FC1421000C12D5
:10013000080021000C123B0081350108C723A500EF
:100140008936A300010AC723A6008936A400031834
:10015000A3177F311700F400AB17AF177216080012
:10016000303084002030850081350135810717004B
:1001700084070301853D08000A300032890BFD33F6
:1001800004081C0005081C004630700289368936B8
:100190001C00B02006301C0023009D172300120015
:1001A0009A002000111EFE33810BF8337F312300AB
:1001B0009A012000111EFE3323009D1317008500B5
:1001C00017008400080000301C00B020C0301C0064
:1001D00000301A00810BFD337F310800B02001365A
:1001E0008936893684070301853D07308105013052
:1001F000031903328935810BFD337F310800EE206E
:1002000080040800EE20890980050800EE20000522
:100210000800EE20800600050319F21608007E3F54
:10022000031910328935FE3F031C08327F3F891BBA
:1002300005327F3F1C007F3F1C0009217F3F890A58
:10024000FF3FED337D3108002300170091070301C4
:10025000923D1513151400000000140E0339031904
:100260000330FD0008002300910A0319920AF133BC
:100270007D0803193321033A03190832033A023A7D
:1002800003190232130E033213080132140EF0392F
:100290001C00FD03080024217D081C0038217D3F3F
:1002A0001C007D3F1C000F217F3F890AFF3F810B0F
:1002B000F533140E0339031902327D3108007F3102
:1002C0003321EA33813523007B3091008330920063
:1002D0004B210800F212200042081C0043081C00B9
:1002E00041081C0040358935183A03198135183A00
:1002F00081072300A7309100833092004B2100300A
:100300001C00F21A810A080001080A00891B113238
:100310001C007D3F1C007D3F1C007E3F1C006221B5
:100320007F310130810703018A3D7E3F043EFE3F5D
:10033000EB337D31080001081C002B30FF3F7908AA
:10034000780403190F327F3F1C007F3F1C005620AA
:100350007A081C0062217F3F1C00043081021700D4
:10036000FF3FED337F3F2B3A031D02321C00AA33BF
:100370007E3108007E3F031909328903FE3F0108E0
:100380001C007E3F1C000921810AF4337D310800E6
:100390007E3F031909328903FE3F7F3F1C007F3FE8
:1003A0001C000921810AF4337D310800E320163056
:1003B0001C001C0003011C001C00C8210B301C0089
:1003C00000301C00C8210C301C0016301C0000300E
:1003D0001C00BA210D301C0000301C0084313A3062
:1003E0001C0084210D301C000C301C008431413075
:1003F0001C008421F2152000C401C501C601C701FB
:10040000080041310A30810001081C007E3F890349
:100410001C000621FE0001081C007E3F1C00FE0897
:10042000031D023202210132FF20810BED337F3F99
:100430008903FF3F031DE6337E3108000A301C00AC
:1004400001081C007E3F1C000621031903327E3F79
:10045000890AFE3F810BF4337E31080000301C0016
:1004600015301C0000301C007F3F1C001E221700AE
:1004700003190C320A3A031D07327F3F890AFF3FF6
:1004800001081C000122810A810BEC337F31080036
:10049000200007307505073A031D073AC0000330F6
:1004A0007605C1000430C200C3016A216A217F3190
:1004B0001700031DF21508000301F4231C0000308F
:1004C0001C00721B0D32810A0108F4231C007F3FBF
:1004D000890AFF3F7F3FF4231C009920721AFE33E4
:1004E00064207C1A0E32FC1A72177F3F8903FF3F8B
:1004F000031DE7337E313C30F30072157219FE3371
:10050000DB337E31FB21F21108006A216A217F3141
:100510001700031908002000FC1A09327C18093260
:10052000FC180B32FC190D327C190D320800C30384
:100530000800C1030330C1050800C10A0330C1052A
:100540000800C2030800C20A080020004408F8009E
:100550004508F90006301C009B2120004608F800E1
:100560004708F90012301C009B2108000A301C00CB
:1005700000301C007F3F1C007F3F1C0002217F3F9A
:100580008903FF3F031DF63315308100FF3F01084B
:100590001C0001220630F30072157219FE337F3FF2
:1005A0008903FF3F031DF3337E31080000301C0038
:1005B00018301C00843148301C0084210800A5221A
:1005C000D6225C22D6224822F21D0332B622D62140
:1005D000F6336A2117000A30F30072157219FE33E0
:1005E0006A21170064202000FC1A09327C1814329A
:1005F000FC180D32FC1918327C1913321732200006
:10060000C30A8522F21EFB336A2117001C32C10384
:100610000330C10585220A32C10A0330C105852293
:100620000532C20385220232C20A8522F21220005C
:10063000C30A6A216A217F3117000319CA332000D7
:10064000C3036A211700A5222E2220000108C60735
:100650000301C73D81080319043201308935810B3C
:10066000FD33C4070301C53D7F31A522AC3308002B
:1006700087011F30860021000C309D0020309E0035
:1006800024000C122100F8308C0522008C100C1074
:100690000C123B00A101A201A701A8012B17220007
:1006A0009D14230002309B009C019A01B0309E00F3
:1006B0009D17CF309D053B00B101B201BF01F53060
:1006C000B5000430B600BE01D030BB005E30B300D0
:1006D0000030B400BF173D103C1421001317C03088
:1006E0008B00F001F101F201AC30F500E130F600D1
:1006F000D621DF22FD33AA0EAE20C4044E202E0EDA
:100700008E202E0E2E20AE0A22208E0E2E208E0837
:10071000AE20220E2220AE0EAE20AE0E2220AE0E55
:10072000AA20880686208E0E8E20440E4E20880831
:100730008E20CA08AA20AA04A420AE0E8820EA08A7
:10074000882084062C2040004020001000008C38B7
:10075000E830443C2E204C348E204436E230CC200D
:10076000CC20CC20CC206C2062346C206234E4207D
:1007700062324E30C838C620C834C620C83444045B
:1007800004100F200000440404100F2000000B0090
:100790000234ED34B534DF342834D3344C34C73428
:1007A0001E34BC348F34B1349834A73430349E3482
:1007B0004F349534ED348C34043485348D347D34A9
:1007C00081347634DA346F3493346934A634633444
:1007D0000F345E34C7345834CC34533418344F3467
:1007E00082344234003400340B0022342D3400347F
:1007F0000F3404341E3407340F3403340F34003400
:100800002D3405340F3409341E340C340F340A34BB
:100810000F3408342D3407340F3408341E340A34AE
:100820001E340C341E3408341E3405343C34053474
:100830002D340D340F340F341E3411340F340F3473
:100840000F340D342D340C340F340D341E340C346D
:100850000F340A340F3408342D3407340F3408347D
:100860001E340A341E340C341E3408341E3405344D
:100870003C34053413340B34103412340C34143437
:10088000FF340E340D340F340C3413341434FF346D
:10089000113412340C341334133415340A34FF3445
:0408A00000340034EC
:020000040001F9
:02000E00E73FCA
:02001000FF1ED1
:00000001FF
